:100000000C9434000C9446000C9446000C9446006A
:100010000C9446000C9446000C9446000C94460048
:100020000C9446000C9446000C9446000C94460038
:100030000C9446000C9446000C9458000C94460016
:100040000C9446000C9446000C9446000C94460018
:100050000C9446000C9446000C9446000C94460008
:100060000C9446000C94460011241FBECFEFD8E03C
:10007000DEBFCDBF21E0A0E0B1E001C01D92A23003
:10008000B207E1F70E9448000C9484000C94000031
:10009000229A16BC8FEF87BD84B5826084BDEEE6E0
:1000A000F0E080818260808385E085BD7894FFCF19
:1000B0001F920F920FB60F9211248F939F93A99BBB
:1000C000FECF16BC82E085BB8091000190910101BA
:1000D000019690930101809300010E9714F415B8D6
:1000E00002C084E085B9809100019091010146979A
:1000F00021F410920101109200019F918F910F90B5
:0C0100000FBE0F901F901895F894FFCFD1
:00000001FF
