:100000000C9434000C943E000C943E000C943E0082
:100010000C943E000C943E000C943E000C943E0068
:100020000C943E000C943E000C943E000C943E0058
:100030000C943E000C943E000C943E000C943E0048
:100040000C943E000C943E000C943E000C943E0038
:100050000C943E000C943E000C943E000C943E0028
:100060000C943E000C943E0011241FBECFEFD8E04C
:10007000DEBFCDBF0E9452000C9470010C940000B2
:1000800084B5826884BD85B5856085BD0895EAE73D
:10009000F0E08081836C8083ECE7F0E08081806415
:1000A000808308951FE0C8E7D0E00F2EF9E0DF2E2F
:1000B000F02D0F2EF3E0EF2EF02D0F2EF6E0FF2E99
:1000C000F02D0CE00E9440000E94470014B9888186
:1000D000998187BD87B587B58B30E8F4D5B88FE3B4
:1000E0009FE10197F1F700C00000E5B88FE39FE1C1
:1000F0000197F1F700C00000F5B88FE39FE1019789
:10010000F1F700C0000005B98FE39FE10197F1F717
:1001100000C00000D7CF87B58B3000F187B585319F
:10012000E8F4D5B88FE39CE90197F1F700C000002F
:10013000E5B88FE39CE90197F1F700C00000F5B83E
:100140008FE39CE90197F1F700C0000005B98FE348
:100150009CE90197F1F700C00000B4CF87B5853165
:1001600060F187B58F3148F5D5B89FEF29EF80E072
:10017000915020408040E1F700C00000E5B89FEFBB
:1001800029EF80E0915020408040E1F700C000005E
:10019000F5B89FEF29EF80E0915020408040E1F7D3
:1001A00000C0000005B99FEF29EF80E0915020408A
:1001B0008040E1F700C0000085CF87B58F3160F146
:1001C00087B5893248F5D5B89FEF26E781E0915091
:1001D00020408040E1F700C00000E5B89FEF26E72F
:1001E00081E0915020408040E1F700C00000F5B868
:1001F0009FEF26E781E0915020408040E1F700C06A
:10020000000005B99FEF26E781E091502040804033
:10021000E1F700C0000056CF87B5893260F187B59D
:10022000833348F5D5B89FEF23EF81E0915020400C
:100230008040E1F700C00000E5B89FEF23EF81E0C8
:10024000915020408040E1F700C00000F5B89FEFDA
:1002500023EF81E0915020408040E1F700C0000092
:1002600005B99FEF23EF81E0915020408040E1F7F6
:1002700000C0000027CF87B5833360F187B58D3389
:1002800048F5D5B89FEF20E782E0915020408040AC
:10029000E1F700C00000E5B89FEF20E782E0915051
:1002A00020408040E1F700C00000F5B89FEF20E754
:1002B00082E0915020408040E1F700C0000005B985
:1002C0009FEF20E782E0915020408040E1F700C09E
:1002D0000000F8CE87B58D3308F4F4CE15B8F2CE11
:0402E000F894FFCFC0
:00000001FF
