:100000000C9434000C94E6020C9451000C945100B2
:100010000C9451000C9451000C9451000C9451001C
:100020000C9451000C9451000C9451000C9451000C
:100030000C9451000C9451000C9451000C945100FC
:100040000C9451000C9451000C9451000C945100EC
:100050000C9451000C9497030C9451000C94510093
:100060000C9451000C94510011241FBECFEFD8E026
:10007000DEBFCDBF12E0A0E0B1E0EAE5FFE002C0E4
:1000800005900D92AE37B107D9F722E0AEE7B2E0A6
:1000900001C01D92AB3AB207E1F70E94FA030C943B
:1000A000AB070C940000CF93C82F8A3019F48DE071
:1000B0000E945300E0ECF0E0808185FFFDCFC0930B
:1000C000C60080E090E0CF910895E0ECF0E0808100
:1000D0008823ECF78091C60090E008951092C50047
:1000E00087E68093C40088E18093C100E5EAF2E0EE
:1000F00088E191E0938382838AE091E09183808319
:100100000895249884B1886284B980E58CBD8DB54A
:1001100081608DBD08958EBD0DB407FEFDCF08959D
:100120008EBD0DB407FEFDCF8EB50895DF92EF9220
:10013000FF920F931F93CF93DF937B018A012A983D
:100140000E949000D82E0115110551F0E7010E0D07
:100150001F1D88810E9490008993C017D107C9F79D
:100160002A9A8D2DDF91CF911F910F91FF90EF90E3
:10017000DF90089580620E94960008950F931F9368
:10018000CF93DF931F92CDB7DEB7F894E9E6F0E0A6
:10019000808182608083E89A7894219A229A2A9AB0
:1001A00029980E9481002FEF81EE94E02150804039
:1001B0009040E1F700C000000FE30093A40241E08B
:1001C00050E064EA72E080E00E94BA001092A4025B
:1001D00041E050E064EA72E081E00E94BA0080EF02
:1001E0008093A40241E050E064EA72E084E00E945F
:1001F000BA001092A40241E050E064EA72E082E0AA
:100200000E94BA0084E78093A40241E050E064EACF
:1002100072E085E00E94BA008EE08093A40241E083
:1002200050E064EA72E086E00E94BA0010E71093A2
:10023000A40241E050E064EA72E087E00E94BA0064
:100240000093A40241E050E064EA72E08CE10E9475
:10025000BA0084E08093A40241E050E064EA72E0D6
:100260008DE10E94BA00198340E050E060E070E048
:1002700082EE0E94BA0040E050E060E070E081EE63
:100280000E94BA0045E050E065E071E08AE00E941B
:10029000BA0045E050E060E071E080E10E94BA0001
:1002A00041E050E0BE016F5F7F4F82E00E94BA00E4
:1002B00089818160898341E050E0BE016F5F7F4F9B
:1002C00082E00E94BA000F90DF91CF911F910F91B1
:1002D00008950E94960008951F93CF93DF931F9275
:1002E000CDB7DEB7182F41E050E0BE016F5F7F4F02
:1002F00080E00E946901133071F128F4113059F047
:100300001230E9F05EC0153009F447C0D0F1163064
:1003100009F445C056C0898181FD53C08260809335
:10032000A40241E050E064EA72E080E00E94BA007A
:100330008FE39FE10197F1F700C0000042C089817F
:100340008D7F8093A40241E050E064EA72E080E097
:100350000E94BA0036C0898181608093A40241E086
:1003600050E064EA72E080E00E94BA0080E7809387
:10037000A40241E050E064EA72E087E00E94BA0023
:1003800020C089818E7F8093A40241E050E064EA1E
:1003900072E080E00E94BA0014C0299812C08981DE
:1003A0008E7F8093A40241E050E064EA72E080E036
:1003B0000E94BA00299A87E592E00197F1F700C000
:1003C00000000F90DF91CF911F91089583E00E946C
:1003D0006C01299A87E592E00197F1F700C00000CF
:1003E0000895CF92DF92EF92FF920F931F93CF93D6
:1003F000DF93CDB7DEB7A0970FB6F894DEBF0FBE80
:10040000CDBF6C016894FF24F5F8CE010196FC0184
:100410002F2D11922A95E9F7B6010E945604F60194
:1004200001900020E9F731978F010C191D0984E034
:100430000E946C0140E050E060E070E082EE0E94BB
:10044000BA0040E050E060E070E081EE0E94BA0047
:10045000F092A40241E050E064EA72E087E00E947A
:10046000BA0041E050E064EA72E080E00E94690175
:100470008091A40280648093A40241E050E064EA89
:1004800072E080E00E94BA002A9880EB0E948B0004
:10049000EFEFE00F002381F08601EE2EF12CF70143
:1004A00031967601EE0EFF1EF80181918F010E94B8
:1004B0008B000E151F05C1F780E00E948B002A9A61
:1004C000299AF0E5FA95F1F7299841E050E064EABD
:1004D00072E087E00E9469018091A40285FD0BC053
:1004E00041E050E064EA72E087E00E946901809197
:1004F000A40285FFF5CFCE0101969F938F9386E2EC
:1005000091E09F938F930E948D0441E050E064EA54
:1005100072E080E00E9469018091A4028F7B809349
:10052000A40241E050E064EA72E080E00E94BA0078
:100530000E94E6010F900F900F900F9081E0A0961F
:100540000FB6F894DEBF0FBECDBFDF91CF911F91E4
:100550000F91FF90EF90DF90CF90089580E2EEE74B
:10056000F2E0DF011D928A95E9F741E050E064EA8C
:1005700072E080E60E9469014091A402442341F0A8
:1005800050E04F5F5F4F6EE772E081E60E94960099
:1005900080917E02882369F080E48093A40241E088
:1005A00050E064EA72E087E00E94BA008EE792E0D1
:1005B000089580E48093A40241E050E064EA72E090
:1005C00087E00E94BA0088E391E008951F920F929D
:1005D0000FB60F9211248F9381E080939F028F9129
:1005E0000F900FBE0F901F901895CF93DF931F921F
:1005F000CDB7DEB78FE391E00E94A3048DE691E0D2
:100600000E94A30441E050E0BE016F5F7F4F80E095
:100610000E94690189811F928F9389E991E09F93DC
:100620008F930E948D0441E050E0BE016F5F7F4FC9
:1006300081E00E94690189811F928F9387EA91E08E
:100640009F938F930E948D0441E050E0BE016F5F45
:100650007F4F82E00E94690189811F928F9385EB11
:1006600091E09F938F930E948D0441E050E0BE0182
:100670006F5F7F4F84E00E94690189811F928F9391
:1006800086EC91E09F938F930E948D0441E050E0AF
:10069000BE016F5F7F4F85E00E94690189811F92D3
:1006A0008F9388ED91E09F938F930E948D0441E09A
:1006B00050E0BE016F5F7F4F86E00E946901898133
:1006C0001F928F9386EE91E09F938F930E948D04EB
:1006D00041E050E0BE016F5F7F4F87E00E946901FB
:1006E00089811F928F9386EF91E09F938F930E9451
:1006F0008D0441E050E0BE016F5F7F4F8DE10E94AD
:10070000690189811F928F9384E092E09F938F9378
:100710000E948D040FB6F894DEBF0FBECDBF83E1FB
:1007200092E00E94A3040F90DF91CF9108951F9251
:100730000F920FB60F9211242F933F934F935F9315
:100740006F937F938F939F93AF93BF93EF93FF9399
:10075000CF93DF93CDB7DEB72597DEBFCDBF1A822B
:1007600019828091780086958093A3028091A302DC
:100770004AE050E0BE016D5F7F4F90E00E945D0453
:1007800089819A810397B8F4E981FA81A981BA81B4
:1007900083E090E08C0F9D1FA80FB91F8C91E0564D
:1007A000FD4F808389819A8101969A83898389810B
:1007B0009A81039748F30F900F900F900F900F902E
:1007C000DF91CF91FF91EF91BF91AF919F918F9169
:1007D0007F916F915F914F913F912F910F900FBE3D
:1007E0000F901F90189580E480937C008FEE80938B
:1007F0007A000895CF93DF93CDB7DEB7A0970FB6F9
:10080000F894DEBF0FBECDBF0E94F3038DE0E0E49D
:10081000F2E0DE01119601900D928A95E1F70E94B7
:100820006E000E94BE000E94F5020E94E6018DE06B
:10083000E0E4F2E0DE01119601900D928A95E1F775
:10084000CE0101960E94F1010DE412E0FF24F39421
:1008500080919F028823E1F310929F020E94AE02D2
:100860009F938F931F930F930E948D042FEF89E620
:1008700098E1215080409040E1F700C0000080EAFC
:1008800092E00E94F1019F2D0F900F900F900F901A
:10089000811101C090E090939E0280919E02882376
:1008A000B9F283E692E00E94A304D2CFFB01DC01FF
:1008B00001900D920020E1F708954532510520F492
:1008C000423010F00C946804FB011082CB010895B3
:1008D000BB274A3031F4992322F4BDE290958195EB
:1008E0009F4F0C947404BB27FB015527AA27880F40
:1008F000991FAA1FA41710F0A41B83955051B9F794
:10090000A05DAA3308F0A95DA193009779F7B11112
:10091000B1931192CB010C94CA06A0E0B0E0E3E9D8
:10092000F4E00C948407AE014B5F5F4FFA016191D4
:100930007191AF018091A7029091A8020E94D30407
:10094000E2E00C94A0070F931F93CF93DF93E09105
:10095000A702F091A802238121FF1BC08C01D0E0E7
:10096000C0E0F80181918F016091A7027091A80207
:10097000DB011896ED91FC911997882331F00995C8
:10098000892B79F3DFEFCFEFECCF8AE00995892B44
:1009900019F08FEF9FEF02C08D2F9C2FDF91CF9129
:1009A0001F910F910895ABE0B0E0E9EDF4E00C94F5
:1009B00074076C017B018A01FC0117821682838116
:1009C00081FFCCC1CE0101963C01F6019381F70174
:1009D00093FD859193FF81917F01882309F4BAC12A
:1009E000853239F493FD859193FF81917F018532A2
:1009F00029F4B60190E00E94DA06E7CF912C212C71
:100A0000312CFFE1F315D8F08B3279F038F48032D5
:100A100079F08332A1F4232D20611DC08D3261F065
:100A2000803369F4232D216016C0832D8260382E17
:100A3000E32DE4603E2E2AC0F32DF8601DC037FC84
:100A40002DC020ED280F2A3040F08E32B9F436FC4C
:100A500081C1232D2064322E19C036FE06C08AE0E3
:100A6000989E200D1124922E11C0EAE02E9E200D9A
:100A70001124222EF32DF0623F2E08C08C3621F473
:100A8000832D8068382E02C0883641F4F70193FD2B
:100A9000859193FF81917F018111B3CF982F9F7D25
:100AA0009554933028F40C5F1F4F9FE399830DC03A
:100AB000833631F0833771F0833509F059C021C096
:100AC000F801808189830E5F1F4F88248394912CC5
:100AD000530113C02801F2E04F0E511CF801A08011
:100AE000B18036FE03C0692D70E002C06FEF7FEF6A
:100AF000C5010E94BF064C018201F32DFF773F2EF6
:100B000016C0280122E0420E511CF801A080B180DD
:100B100036FE03C0692D70E002C06FEF7FEFC501A4
:100B20000E94B4064C01F32DF0683F2E820133FC85
:100B30001BC0822D90E088169906B0F4B60180E2C1
:100B400090E00E94DA062A94F4CFF50137FC8591F3
:100B500037FE81915F01B60190E00E94DA06211014
:100B60002A9421E0821A91088114910471F7E8C057
:100B7000843611F0893641F5F80137FE07C06081EF
:100B80007181828193810C5F1F4F08C060817181E8
:100B9000072E000C880B990B0E5F1F4FF32DFF766D
:100BA0003F2E97FF09C090958095709561957F4F76
:100BB0008F4F9F4FF0683F2E2AE030E0A3010E9444
:100BC0001607882E861845C0853731F4232D2F7ED1
:100BD000B22E2AE030E025C0932D997FB92E8F36B2
:100BE000C1F018F4883579F0B5C0803719F088372E
:100BF00021F0B0C0E92FE061BE2EB4FE0DC0FB2D88
:100C0000F460BF2E09C034FE0AC0292F2660B22E20
:100C100006C028E030E005C020E130E002C020E15D
:100C200032E0F801B7FE07C0608171818281938153
:100C30000C5F1F4F06C06081718180E090E00E5F05
:100C40001F4FA3010E941607882E8618FB2DFF77E1
:100C50003F2E36FE0DC0232D2E7FA22E891458F470
:100C600034FE0BC032FC09C0832D8E7EA82E05C039
:100C7000B82CA32C03C0B82C01C0B92CA4FE0FC003
:100C8000FE01E80DF11D8081803321F49A2D997EBB
:100C9000A92E09C0A2FE06C0B394B39404C08A2D45
:100CA000867809F0B394A3FC11C0A0FE06C0B2146C
:100CB00088F4280C922C9B180EC0B21460F4B60174
:100CC00080E290E00E94DA06B394F7CFB21418F4F1
:100CD0002B1802C0982C212CA4FE10C0B60180E372
:100CE00090E00E94DA06A2FE17C0A1FC03C088E7CC
:100CF00090E002C088E590E0B6010CC08A2D8678AD
:100D000059F0A1FE02C08BE201C080E2A7FC8DE297
:100D1000B60190E00E94DA06891438F4B60180E347
:100D200090E00E94DA069A94F7CF8A94F301E80DD6
:100D3000F11D8081B60190E00E94DA068110F5CFA6
:100D4000222009F442CEB60180E290E00E94DA0649
:100D50002A94F6CFF6018681978102C08FEF9FEF2C
:100D60002B96E2E10C949007FC01059061507040D5
:100D70000110D8F7809590958E0F9F1F0895FC0164
:100D80006150704001900110D8F7809590958E0FBA
:100D90009F1F0895DC01FC01672F71917723E1F714
:100DA000329704C07C916D9370836291AE17BF0738
:100DB000C8F308950F931F93CF93DF93FB01238113
:100DC00021FD03C08FEF9FEF2CC022FF16C046818C
:100DD0005781248135814217530744F4A081B181A2
:100DE0009D012F5F3F4F318320838C932681378174
:100DF0002F5F3F4F3783268314C08B01EC01FB012B
:100E00000084F185E02D0995892BE1F6D80116962D
:100E10008D919C911797019617969C938E93169798
:100E2000CE01DF91CF911F910F910895FA01AA276A
:100E3000283051F1203181F1E8946F936E7F6E5F1D
:100E40007F4F8F4F9F4FAF4FB1E03ED0B4E03CD0CB
:100E5000670F781F891F9A1FA11D680F791F8A1FAE
:100E6000911DA11D6A0F711D811D911DA11D20D015
:100E700009F468943F912AE0269F11243019305DCF
:100E80003193DEF6CF010895462F4770405D4193C0
:100E9000B3E00FD0C9F7F6CF462F4F70405D4A330D
:100EA00018F0495D31FD4052419302D0A9F7EACFD5
:100EB000B4E0A6959795879577956795BA95C9F704
:100EC00000976105710508959B01AC010A2E0694F7
:100ED0005795479537952795BA95C9F7620F731FB0
:100EE000841F951FA01D08952F923F924F925F92ED
:100EF0006F927F928F929F92AF92BF92CF92DF922A
:100F0000EF92FF920F931F93CF93DF93CDB7DEB78E
:100F1000CA1BDB0B0FB6F894DEBF0FBECDBF099422
:100F20002A88398848885F846E847D848C849B8479
:100F3000AA84B984C884DF80EE80FD800C811B8187
:100F4000AA81B981CE0FD11D0FB6F894DEBF0FBEB6
:0A0F5000CDBFED010895F894FFCF26
:100F5A00E7E7E7E7E7E7E7E7E7E700000001000080
:100F6A000000000065000000000000020000000010
:100F7A005300000000004D65737361676520736557
:100F8A006E743A2025730A006661696C65640053C1
:100F9A0074617274757020737563636573736675B3
:100FAA006C0A0A206E524632344C30312B20636F61
:100FBA006E666967757265642061733A002D2D2D1E
:100FCA002D2D2D2D2D2D2D2D2D2D2D2D2D2D2D2D47
:100FDA002D2D2D2D2D2D2D2D2D2D2D2D2D2D2D2D37
:100FEA002D2D2D2D2D2D2D2D00434F4E46494709D0
:100FFA0009307825780A00454E5F414109090930D0
:10100A007825780A00454E5F5258414444520909EE
:10101A00307825780A0053455455505F524554524A
:10102A000909307825780A0052465F4348090909B8
:10103A00307825780A0052465F53455455500909BD
:10104A00307825780A0053544154555309093078A9
:10105A0025780A00464541545552450909307825F4
:10106A00780A002D2D2D2D2D2D2D2D2D2D2D2D2DAB
:10107A002D2D2D2D2D2D2D2D2D2D2D2D2D2D2D2D96
:10108A002D2D2D2D2D2D2D2D2D2D2D2D2D2D0A00D6
:10109A0048656C6C6F20576F726C642100526563EF
:1010AA006569766564206D6573736167653A2025A5
:1010BA00730A004D6573736167652073656E7420EA
:0E10CA007375636365737366756C6C790000F3
:00000001FF
