:020000020000FC
:100000000C9404000C94130048E04EBF4FEF42E004
:1000100042E040936900259A2D9A5A9A41E04DBBDF
:1000200078940C94110055B160E2562755B902D06E
:100030000CD018950ED00DD00CD00BD00AD009D012
:1000400008D007D006D005D0089503D002D00CD038
:1000500008950FD00ED00DD00CD00BD00AD009D0FF
:1000600008D007D006D0089504D003D002D001D024
:1000700000D00AD009D008D007D006D005D004D0CF
:1000800003D002D001D0089508D007D006D005D003
:1000900004D003D002D001D008950F9304EB0000E8
:1000A00000000000000000000000000000000A95B1
:0600B000B1F70F91089565
:00000001FF
