:100000000C9434000C943E000C943E000C943E0082
:100010000C943E000C943E000C943E000C943E0068
:100020000C943E000C943E000C943E000C943E0058
:100030000C943E000C943E000C943E000C943E0048
:100040000C943E000C943E000C943E000C943E0038
:100050000C943E000C943E000C943E000C943E0028
:100060000C943E000C943E0011241FBECFEFD8E04C
:10007000DEBFCDBF0E9440000C945A000C940000DB
:10008000229A14BC16BC85E085BD80E090E021E09A
:1000900034E0A89BFECF16BC25BB01968B319105A1
:1000A00014F415B801C035B98C32910591F780E090
:0800B00090E0EFCFF894FFCFC0
:00000001FF
