:100000000C9434000C9446000C9446000C9446006A
:100010000C9446000C9446000C9446000C94460048
:100020000C9446000C9446000C9446000C94460038
:100030000C9446000C9446000C9446000C94460028
:100040000C9453000C9446000C9446000C9446000B
:100050000C9446000C9446000C9446000C94460008
:100060000C9446000C94460011241FBECFEFD8E03C
:10007000DEBFCDBF21E0A0E0B1E001C01D92A23003
:10008000B207E1F70E9448000C947F000C94000036
:10009000229AEEE6F0E080818160808316BC78943D
:1000A00085E085BDFFCF1F920F920FB60F921124EE
:1000B0008F939F93A89BFECF16BC81E085BB809158
:1000C000000190910101019690930101809300013C
:1000D0000E9714F415B802C084E085B98091000130
:1000E00090910101469721F41092010110920001B4
:1000F0009F918F910F900FBE0F901F901895F894BD
:02010000FFCF2F
:00000001FF
