:100000000C9434000C9453000C943E000C943E006D
:100010000C943E000C943E000C943E000C943E0068
:100020000C943E000C943E000C943E000C943E0058
:100030000C943E000C943E000C943E000C943E0048
:100040000C943E000C943E000C943E000C943E0038
:100050000C943E000C943E000C943E000C943E0028
:100060000C943E000C943E0011241FBECFEFD8E04C
:10007000DEBFCDBF0E9440000C9470000C940000C5
:10008000259A2D9A5A9A82E0809369002FEF88E092
:100090009DE3215080409040E1F700C0000081E0E6
:1000A0008DBB7894FFCF1F920F920FB60F92112441
:1000B0002F938F939F9395B180E2892785B92FEF76
:1000C00088E09DE3215080409040E1F700C00000AF
:1000D0009F918F912F910F900FBE0F901F901895A9
:0400E000F894FFCFC2
:00000001FF
