S00A000032622E7372656386
S11300000C9434000C9446000C9446000C94460066
S11300100C9446000C9446000C9446000C94460044
S11300200C9446000C9446000C9446000C94460034
S11300300C9446000C9446000C9446000C94460024
S11300400C9453000C9446000C9446000C94460007
S11300500C9446000C9446000C9446000C94460004
S11300600C9446000C94460011241FBECFEFD8E038
S1130070DEBFCDBF21E0A0E0B1E001C01D92A230FF
S1130080B207E1F70E9448000C9475000C9400003C
S1130090229AEEE6F0E080818160808316BC789439
S11300A085E085BDFFCF1F920F920FB60F921124EA
S11300B021E034E0319905C0109201011092000151
S11300C016BCA89BFECF16BC25BB80910001909165
S11300D001010196909301018093000186349105FA
S11100E014F415B8E7CF35B9E5CFF894FFCF87
S9030000FC
