S00C0000444134412E737265631E
S11300000C9434000C9446000C9446000C94460066
S11300100C9446000C9446000C9446000C94460044
S11300200C9446000C9446000C9446000C94460034
S11300300C9446000C9446000C9446000C94460024
S11300400C9446000C9446000C9446000C94460014
S11300500C9446000C9446000C9446000C94460004
S11300600C9446000C94460011241FBECFEFD8E038
S1130070DEBFCDBF21E0A0E0B1E001C01D92A230FF
S1130080B207E1F70E9448000C9495000C9400001C
S1130090429A88EC87BD84B5836A84BD85B58C603B
S11300A085BDAAE7B0E0ECE7F0E0C8E7D0E05FEF99
S11300B040E221E030E01AC0339918C06FEF81EEBE
S11300C094E0615080409040E1F700C000008C91C2
S11300D0816C8C938081806480838881998188BDC0
S11300E05AB94BB93093010120930001809100016A
S11300F090910101892B01F311C0339913C06FEF63
S113010081EE94E0615080409040E1F700C000002F
S11301105D981AB8109201011092000180910001BB
S111012090910101009749F7E1CFF894FFCFC9
S9030000FC
