:100000000C9434000C9446000C9446000C9446006A
:100010000C9446000C9446000C9446000C94460048
:100020000C9446000C9446000C9446000C94460038
:100030000C9446000C9446000C9458000C94460016
:100040000C9446000C9446000C9446000C94460018
:100050000C9446000C9446000C9446000C94460008
:100060000C9446000C94460011241FBECFEFD8E03C
:10007000DEBFCDBF21E0A0E0B1E001C01D92A23003
:10008000B207E1F70E9448000C947A000C9400003B
:10009000229A16BC8FEF87BD84B5826084BDEEE6E0
:1000A000F0E080818260808385E085BD7894FFCF19
:1000B0001F920F920FB60F92112422E034E0319973
:1000C00005C0109201011092000116BCA99BFECF41
:1000D00016BC25BB8091000190910101019690937F
:1000E0000101809300018634910514F415B8E7CF1F
:0800F00035B9E5CFF894FFCF0C
:00000001FF
